:03000000020006F5
:0C000600787FE4F6D8FD75810802004DFB
:0A00C600C0F9A4B0999282F880906E
:0300D00001080024
:0300030002009266
:10009200C0E0C083C082C0D00508E508D3940940FF
:1000A20003750800E5089000C693F5A0D0D0D08271
:0500B200D083D0E03214
:0F00B7009000C6E493F5A0D288D2A8D2AF80FE05
:100012000200B7E493A3F8E493A34003F68001F24D
:1000220008DFF48029E493A3F85407240CC8C333EF
:10003200C4540F4420C8834004F456800146F6DFBE
:10004200E4800B01020408102040809000D0E47E7E
:10005200019360BCA3FF543F30E509541FFEE493B3
:10006200A360010ECF54C025E060A840B8E493A37A
:10007200FAE493A3F8E493A3C8C582C8CAC583CAA5
:10008200F0A3C8C582C8CAC583CADFE9DEE780BE5D
:0100D300002C
:00000001FF
