:0A008000C0F9A4B0999282F88090B4
:10005400E4FDFCC3ED9FEC9E5015E4FBFA0BBB00E2
:0F006400010AEB64784A70F50DBD00010C80E4D1
:01007300226A
:10000300E4F508F509D2B074802509F5827400354A
:1000130008F583E493F5A020B0FD7F147E00120061
:100023005420B0F30509E50970020508D39409E5E6
:1000330008648094804005E4F508F5097480250977
:10004300F58274003508F583E493F5A020B0C880E9
:01005300FBB1
:0300000002007487
:0C007400787FE4F6D8FD758109020003D6
:00000001FF
