:100000000C945C000C9479000C9479000C947900A9
:100010000C9479000C9479000C9479000C9479007C
:100020000C9479000C9479000C9479000C9479006C
:100030000C9479000C9479000C9479000C9479005C
:100040000C9421010C9479000C9479000C947900A3
:100050000C9479000C9479000C9479000C9479003C
:100060000C9479000C947900000000002400270013
:100070002A0000000000250028002B0004040404CE
:100080000404040402020202020203030303030342
:10009000010204081020408001020408102001021F
:1000A00004081020000000080002010000030407FB
:1000B000000000000000000011241FBECFEFD8E0B8
:1000C000DEBFCDBF11E0A0E0B1E0E2E1F4E002C0AC
:1000D00005900D92A431B107D9F721E0A4E1B1E078
:1000E00001C01D92AD31B207E1F70E946B010C9483
:1000F00007020C94000090E0FC01EC55FF4F2491A6
:10010000FC01E057FF4F3491FC01E458FF4FE491AC
:10011000EE23C9F0222339F0233001F1A8F4213075
:1001200019F1223029F1F0E0EE0FFF1FEE58FF4FDA
:10013000A591B4918FB7F894EC91611126C03095D8
:100140003E233C938FBF08952730A9F02830C9F093
:10015000243049F7809180008F7D03C0809180001A
:100160008F7780938000DFCF84B58F7784BDDBCF1E
:1001700084B58F7DFBCF8091B0008F778093B000E6
:10018000D2CF8091B0008F7DF9CF3E2BDACF3FB731
:10019000F8948091190190911A01A0911B01B091DE
:1001A0001C0126B5A89B05C02F3F19F00196A11D83
:1001B000B11D3FBFBA2FA92F982F8827BC01CD01B1
:1001C000620F711D811D911D42E0660F771F881F10
:1001D000991F4A95D1F708958F929F92AF92BF923F
:1001E000CF92DF92EF92FF920E94C7004B015C0119
:1001F00084E6C82ED12CE12CF12C0E94C70068198E
:1002000079098A099B09683E734081059105A8F325
:1002100021E0C21AD108E108F10888EE880E83E0D7
:10022000981EA11CB11CC114D104E104F10429F7EA
:10023000FF90EF90DF90CF90BF90AF909F908F9006
:1002400008951F920F920FB60F9211242F933F9390
:100250008F939F93AF93BF93809115019091160157
:10026000A0911701B09118013091140123E0230FE0
:100270002D3758F50196A11DB11D209314018093CF
:10028000150190931601A0931701B0931801809166
:10029000190190911A01A0911B01B0911C010196C6
:1002A000A11DB11D8093190190931A01A0931B0108
:1002B000B0931C01BF91AF919F918F913F912F916E
:1002C0000F900FBE0F901F90189526E8230F0296EF
:1002D000A11DB11DD2CF789484B5826084BD84B550
:1002E000816084BD85B5826085BD85B5816085BD31
:1002F00080916E00816080936E00109281008091E9
:100300008100826080938100809181008160809370
:100310008100809180008160809380008091B10095
:1003200084608093B1008091B00081608093B000C0
:1003300080917A00846080937A0080917A00826054
:1003400080937A0080917A00816080937A00809116
:100350007A00806880937A001092C100C0E0D1E0FA
:10036000DE018D919D919927FC01E057FF4F24916B
:1003700084589F4FFC0184918823A1F090E0880F5E
:10038000991FFC01E859FF4F45915491FC01EE582B
:10039000FF4F859194918FB7F894FA019081922B39
:1003A00090838FBFF1E0A431BF07D9F680E0C82E5B
:1003B00080E0D82E00E011E0F801F0800E5F1F4FC2
:1003C00061E08F2D0E947B000E94EC0060E08F2D89
:1003D0000E947B00F1E004311F0771F700E111E09A
:1003E000F801F08061E08F2D0E947B000E94EC00FC
:1003F00060E08F2D0E947B0002501109C017D107C9
:1004000079F7C114D104B1F20E940000D3CFF8945F
:02041000FFCF1C
:1004120002000300040005000600070008000900AE
:040422000A000B00C1
:00000001FF
