:020000040000FA
:100000000C9462000C948A000C948A000C948A0070
:100010000C948A000C948A000C948A000C948A0038
:100020000C948A000C948A000C948A000C948A0028
:100030000C948A000C948A000C948A000C948A0018
:100040000C9464020C948A000C94D4020C94AE02BA
:100050000C948A000C948A000C948A000C948A00F8
:100060000C948A000C948A000000000024002700F1
:100070002A000000000023002600290000000000E4
:10008000250028002B0004040404040404040202D4
:100090000202020203030303030301020408102007
:1000A0004080010204081020010204081020000012
:1000B0000008000201000003040700000000000027
:1000C0000000430411241FBECFEFD8E0DEBFCDBF38
:1000D00011E0A0E0B1E0E0EFF8E002C005900D9281
:1000E000AC34B107D9F721E0ACE4B1E001C01D9216
:1000F000A83FB207E1F710E0C2E6D0E004C02197C4
:10010000FE010E947004C136D107C9F70E940603A0
:100110000C9476040C940000833081F028F4813034
:1001200099F08230A9F008958730A9F08830C9F09D
:100130008430B1F4809180008F7D03C08091800075
:100140008F7780938000089584B58F7784BD08955C
:1001500084B58F7DFBCF8091B0008F778093B00006
:1001600008958091B0008F7DF9CF1F93CF93DF93D7
:10017000EBEBF0E09491E7EAF0E0D491E3E9F0E012
:10018000C491CC23B9F0182F992319F0892F0E941C
:100190008C00EC2FF0E0EE0FFF1FE458FF4FA5910D
:1001A000B4918FB7F894EC91111108C0D095DE236B
:1001B000DC938FBFDF91CF911F910895DE2BF8CF95
:1001C0003FB7F8948091570190915801A09159013F
:1001D000B0915A0126B5A89B05C02F3F19F0019692
:1001E000A11DB11D3FBFBA2FA92F982F8827BC0191
:1001F000CD01620F711D811D911D42E0660F771FB9
:10020000881F991F4A95D1F708958F929F92AF92B8
:10021000BF92CF92DF92EF92FF920E94E0004B01DB
:100220005C0182E3C82ED12CE12CF12C0E94E0006D
:10023000681979098A099B09683E7340810591050F
:10024000A8F321E0C21AD108E108F10888EE880E6F
:1002500083E0981EA11CB11CC114D104E104F10477
:1002600029F7FF90EF90DF90CF90BF90AF909F90D5
:100270008F900895AF92BF92CF92DF92EF92FF924C
:100280000F931F93CF93DF936C017B018B01040FBE
:10029000151FEB015E01AE18BF08C017D10759F05A
:1002A0006991D601ED91FC910190F081E02DC6019C
:1002B0000995892B79F7C501DF91CF911F910F9196
:1002C000FF90EF90DF90CF90BF90AF900895FC012A
:1002D000538D448D252F30E0842F90E0821B930BAB
:1002E000541710F0CF96089501970895FC01918D51
:1002F000828D981761F0A28DAE0FBF2FB11D5D9654
:100300008C91928D9F5F9F73928F90E008958FEFF5
:100310009FEF0895FC01918D828D981731F0828DA9
:10032000E80FF11D858D90E008958FEF9FEF089500
:10033000FC01918D228D892F90E0805C9F4F821B64
:1003400091098F73992708958BE591E00E94980198
:1003500021E0892B09F420E0822F089580E090E0CD
:10036000892B29F00E94A40181110C9400000895AA
:10037000FC01A48DA80FB92FB11DA35ABF4F2C911A
:10038000848D90E001968F739927848FA689B78911
:100390002C93A089B1898C91837080648C93938D08
:1003A000848D981306C00288F389E02D80818F7DAB
:1003B00080830895EF92FF920F931F93CF93DF9363
:1003C000EC0181E0888F9B8D8C8D98131AC0E88991
:1003D000F989808185FF15C09FB7F894EE89FF8960
:1003E0006083E889F98980818370806480839FBFFE
:1003F00081E090E0DF91CF911F910F91FF90EF90FE
:100400000895F62E0B8D10E00F5F1F4F0F7311270D
:10041000E02E8C8D8E110CC00FB607FCFACFE88948
:10042000F989808185FFF5CFCE010E94B801F1CF17
:10043000EB8DEC0FFD2FF11DE35AFF4FF0829FB7BC
:10044000F8940B8FEA89FB8980818062CFCFCF93AC
:10045000DF93EC01888D8823B9F0AA89BB89E889EC
:10046000F9898C9185FD03C0808186FD0DC00FB692
:1004700007FCF7CF8C9185FFF2CF808185FFEDCF10
:10048000CE010E94B801E9CFDF91CF910895CF93BB
:10049000DF93FC0101900020E9F73197AF01481B81
:1004A000590BBC018BE591E00E943A01EC0142E05E
:1004B00050E062E171E08BE591E00E943A018C0F1F
:1004C0009D1FDF91CF9108951F920F920FB60F924B
:1004D00011242F933F938F939F93AF93BF9380915A
:1004E000530190915401A0915501B0915601309162
:1004F000520123E0230F2D3758F50196A11DB11DA0
:10050000209352018093530190935401A09355017D
:10051000B09356018091570190915801A0915901D3
:10052000B0915A010196A11DB11D8093570190937E
:100530005801A0935901B0935A01BF91AF919F9177
:100540008F913F912F910F900FBE0F901F90189594
:1005500026E8230F0296A11DB11DD2CF1F920F9244
:100560000FB60F9211242F933F934F935F936F9386
:100570007F938F939F93AF93BF93EF93FF938BE5FD
:1005800091E00E94B801FF91EF91BF91AF919F91CF
:100590008F917F916F915F914F913F912F910F902C
:1005A0000FBE0F901F9018951F920F920FB60F92CB
:1005B00011242F938F939F93EF93FF93E0916B01FF
:1005C000F0916C018081E0917101F091720182FDE6
:1005D0001BC09081809174018F5F8F732091750192
:1005E000821741F0E0917401F0E0E55AFE4F958FDB
:1005F00080937401FF91EF919F918F912F910F90B4
:100600000FBE0F901F9018958081F4CF789484B519
:10061000826084BD84B5816084BD85B5826085BDFE
:1006200085B5816085BD80916E00816080936E008C
:10063000109281008091810082608093810080917E
:10064000810081608093810080918000816080932F
:1006500080008091B10084608093B1008091B000EF
:1006600081608093B00080917A00846080937A00EA
:1006700080917A00826080937A0080917A00816014
:1006800080937A0080917A00806880937A0010923B
:10069000C100E7EAF0E02491E3E9F0E084918823E7
:1006A00099F090E0880F991FFC01E859FF4FA59140
:1006B000B491FC01E458FF4F859194918FB7F89461
:1006C000EC91E22BEC938FBFCCE9D0E0FE012491BA
:1006D00008E810E0F80184918823C9F090E0880FC1
:1006E000991FFC01E859FF4FA591B491FC01E45812
:1006F000FF4F459154913FB7F8949C91822F80957C
:1007000098239C93FA019081892380833FBFE091D5
:100710006B01F0916C0182E08083E0916701F091C0
:1007200068011082E0916901F0916A018FEC808389
:1007300010927301E0916F01F091700186E0808367
:10074000E0916D01F0916E01808180618083E09184
:100750006D01F0916E01808188608083E0916D0170
:10076000F0916E01808180688083E0916D01F0914D
:100770006E0180818F7D808390EBE92E90E0F92ED1
:1007800020E0C22E20E0D22EF7018491FE01A49039
:10079000F801B490BB2009F448C081110E948C007C
:1007A000EB2DF0E0EE0FFF1FEE58FF4FA591B49137
:1007B0008C91A822D1F18091500190915101892B07
:1007C000A9F40E9405012FB7F894809153019091EC
:1007D0005401A0915501B09156012FBF80934C0157
:1007E00090934D01A0934E01B0934F0181E090E0B2
:1007F00006C0C397A105B10594F490E080E0909302
:10080000510180935001C114D10409F4BDCF0E945D
:10081000A401882309F4B8CF0E940000B5CF8FE26D
:1008200091E00E94470280E02BC08091500190919E
:100830005101019711F70E9405012FB7F89480919B
:10084000530190915401A0915501B09156012FBFD1
:1008500040914C0150914D0160914E0170914F01BA
:10086000841B950BA60BB70B893EF3E09F07A105F0
:10087000B1050CF4BECF85E191E00E94470281E012
:100880000E94B500BACFEBE5F1E01382128288EE48
:1008900093E0A0E0B0E084839583A683B78384E0EF
:1008A00091E09183808385EC90E09587848784EC48
:1008B00090E09787868780EC90E0918B808B81EC2D
:1008C00090E0938B828B82EC90E0958B848B86EC0E
:1008D00090E0978B868B118E128E138E148E089556
:1008E000EE0FFF1F0590F491E02D0994F894FFCFCF
:1008F00000000000DA013A01670127029801760141
:100900008A010D0A0042E1BAA56D2044C3A0692006
:100910002D3E2042E1BAAC5420C490C3884E004220
:10092000E1BAA56D204E67E1BAAF6E202D3E20548E
:0C093000E1BAAE5420C490C3884E000011
:107E0000112484B714BE81FFF0D085E080938100F7
:107E100082E08093C00088E18093C10086E0809377
:107E2000C20080E18093C4008EE0C9D0259A86E02C
:107E300020E33CEF91E0309385002093840096BBD3
:107E4000B09BFECF1D9AA8958150A9F7CC24DD24C4
:107E500088248394B5E0AB2EA1E19A2EF3E0BF2EE7
:107E6000A2D0813461F49FD0082FAFD0023811F036
:107E7000013811F484E001C083E08DD089C08234E0
:107E800011F484E103C0853419F485E0A6D080C0E4
:107E9000853579F488D0E82EFF2485D0082F10E0AE
:107EA000102F00270E291F29000F111F8ED06801E7
:107EB0006FC0863521F484E090D080E0DECF843638
:107EC00009F040C070D06FD0082F6DD080E0C81688
:107ED00080E7D80618F4F601B7BEE895C0E0D1E017
:107EE00062D089930C17E1F7F0E0CF16F0E7DF06D8
:107EF00018F0F601B7BEE89568D007B600FCFDCFD4
:107F0000A601A0E0B1E02C9130E011968C91119780
:107F100090E0982F8827822B932B1296FA010C0160
:107F200087BEE89511244E5F5F4FF1E0A038BF0790
:107F300051F7F601A7BEE89507B600FCFDCF97BE46
:107F4000E89526C08437B1F42ED02DD0F82E2BD052
:107F50003CD0F601EF2C8F010F5F1F4F84911BD097
:107F6000EA94F801C1F70894C11CD11CFA94CF0C13
:107F7000D11C0EC0853739F428D08EE10CD085E9AC
:107F80000AD08FE07ACF813511F488E018D01DD067
:107F900080E101D065CF982F8091C00085FFFCCF94
:107FA0009093C60008958091C00087FFFCCF809118
:107FB000C00084FD01C0A8958091C6000895E0E648
:107FC000F0E098E1908380830895EDDF803219F02E
:107FD00088E0F5DFFFCF84E1DECF1F93182FE3DFCA
:107FE0001150E9F7F2DF1F91089580E0E8DFEE27F6
:047FF000FF270994CA
:027FFE00040479
:00000001FF
